:10000000021527AB07A8037401088002C333D8FC8C
:10001000FAF4F955FDFFAE05A803EE088002C333DC
:10002000D8FC4FF5FDAF04A803EF088002C333D816
:10003000FCFFE5FC594FF5FCEAF452FA22AF37E435
:10004000F5372202131B53AEDF2222021B47EF704B
:1000500004A2818002A286E433FF2202164E8B0E98
:100060008A0F8910E4F511C3E5119405748094801A
:100070004003020213E51175F007A4AB0E2510F939
:10008000E50F35F0FA900006120986605BAA0FA909
:100090001075F007E511A4F58285F083120A30FB94
:1000A000AAF07C007D64FFAE021209C58F127C00AD
:1000B0007D64AF03AE021209C57E007F0ACFCDCFAB
:1000C000CECCCE1209C58F13AB0EAA0F75F007E583
:1000D00011A4F58285F083120A30FFAEF07C007D1A
:1000E0000A1209C58D148007E4F512F513F514E51D
:1000F000127067E5137063E514705F901D2293FF23
:100100004401FEE51125E0244AF582E4341DF5831F
:10011000E49325E0246FF582E43400F583EEF0E506
:100120001125E0244AF582E4341DF583E49325E0AB
:100130002470F582E43400F583EFF0E51125E02426
:100140004BF582E4341DF583E49325E0246FF582BA
:10015000E43400F583EEF00201F2E51325E02422F9
:10016000F582E4341DF583E4934401FFE51125E0B5
:10017000244AF582E4341DF583E49325E0246FF5E9
:1001800082E43400F583EFF0E51325E02423F582C3
:10019000E4341DF583E493FFE51125E0244AF5825C
:1001A000E4341DF583E49325E02470F582E4340003
:1001B000F583EFF0E51425E02422F582E4341DF503
:1001C00083E4934401FFE51125E0244BF582E434F8
:1001D0001DF583E49325E0246FF582E43400F58374
:1001E000EFF0E51425E02423F582E4341DF583E4E3
:1001F00093FFE51125E0244BF582E4341DF583E4FB
:100200009325E02470F582E43400F583EFF00511C6
:10021000020067E4F511C3E51194057480948040F1
:10022000030203CEE51175F007A4AB0E2510F9E526
:100230000F35F0FA900002120A30FBAAF07C007D24
:1002400064FFAE021209C58F127C007D64AF03AE5D
:10025000021209C57E007F0ACFCDCFCECCCE1209C7
:10026000C58F13E51175F007A4AB0E2510F9E50F46
:1002700035F0FA900002120A30FFAEF07C007D0AE1
:100280001209C58D14E5126003020317E51325E07A
:100290002436F582E4341DF583E493FFE51125E06F
:1002A0002454F582E4341DF583E49325E0246FF5AE
:1002B00082E43400F583EFF0E51325E02437F5827E
:1002C000E4341DF583E4934408FFE51125E024544C
:1002D000F582E4341DF583E49325E02470F582E48F
:1002E0003400F583EFF0E51425E02436F582E4349C
:1002F0001DF583E493FFE51125E02455F582E434F0
:100300001DF583E49325E0246FF582E43400F58342
:10031000EFF0E51402039DE51225E02436F582E4B2
:10032000341DF583E493FFE51125E02454F582E4C0
:10033000341DF583E49325E0246FF582E43400F561
:1003400083EFF0E51225E02437F582E4341DF583D0
:10035000E493FFE51125E02454F582E4341DF58390
:10036000E49325E02470F582E43400F583EFF0E5B2
:100370001325E02436F582E4341DF583E493FFE58C
:100380001125E02455F582E4341DF583E49325E03E
:10039000246FF582E43400F583EFF0E51325E024C3
:1003A00037F582E4341DF583E4934408FFE5112515
:1003B000E02455F582E4341DF583E49325E02470B0
:1003C000F582E43400F583EFF00511020216E4F53E
:1003D00011C3E5119405748094804003020724E55D
:1003E0001175F007A4AB0E2510F9E50F35F0FA9062
:1003F0000004120A30F51785F016E4F51590000692
:100400001209866053C3E51794E8E5169403401279
:10041000751501AE16AF177C007D0A1209C58E1640
:100420008F17AE16AF177C007D641209C58F12AE10
:1004300016AF177C007D641209C57E007F0ACFCD00
:10044000CFCECCCE1209C58F13AE16AF177C007D70
:100450000A1209C58D148009E4F512F513F514F597
:1004600015741C2511F8E4F674212511F876017431
:10047000262511F8E4F6AF12FEEF6003020502E54F
:1004800013707FE514707BE5157077901D3693FD32
:10049000E51125E0245EF582E4341DF583E493251F
:1004A000E0246FF582E43400F583EDF0E51125E0FA
:1004B000245EF582E4341DF583E49325E02470F591
:1004C00082E43400F583EDF0E51125E0245FF58248
:1004D000E4341DF583E49325E0246FF582E43400D1
:1004E000F583EDF0E51125E0245FF582E4341DF598
:1004F00083E49325E02470F582E43400F583ED0273
:1005000005BFEF4E60030205CAE51560030205CA88
:10051000E51325E02436F582E4341DF583E493FFEA
:10052000E51125E0245EF582E4341DF583E493258E
:10053000E0246FF582E43400F583EFF0E51325E065
:100540002437F582E4341DF583E493FFE51125E0BB
:10055000245EF582E4341DF583E49325E02470F5F0
:1005600082E43400F583EFF0E51425E02436F582CB
:10057000E4341DF583E493FFE51125E0245FF58263
:10058000E4341DF583E49325E0246FF582E4340020
:10059000F583EFF0E51425E02437F582E4341DF50A
:1005A00083E493FFE51125E0245FF582E4341DF533
:1005B00083E49325E02470F582E43400F583EFF0C2
:1005C00074262511F8760102071FD3E512940074F2
:1005D000809480500302071FE5156003020668E55A
:1005E0001225E02436F582E4341DF583E493FFE51B
:1005F0001125E0245EF582E4341DF583E49325E0C3
:10060000246FF582E43400F583EFF0E51225E02451
:1006100037F582E4341DF583E493FFE51125E024EA
:100620005EF582E4341DF583E49325E02470F582C1
:10063000E43400F583EFF0E51325E02436F582E499
:10064000341DF583E493FFE51125E0245FF582E492
:10065000341DF583E49325E0246FF582E43400F53E
:1006600083EFF0E5130206F5741C2511F87601E519
:100670001325E02436F582E4341DF583E493FFE589
:100680001125E0245EF582E4341DF583E49325E032
:10069000246FF582E43400F583EFF0E51325E024C0
:1006A00037F582E4341DF583E493FFE51125E0245A
:1006B0005EF582E4341DF583E49325E02470F58231
:1006C000E43400F583EFF0E51425E02436F582E408
:1006D000341DF583E493FFE51125E0245FF582E402
:1006E000341DF583E49325E0246FF582E43400F5AE
:1006F00083EFF0E51425E02437F582E4341DF5831B
:10070000E493FFE51125E0245FF582E4341DF583D1
:10071000E49325E02470F582E43400F583EFF005DE
:10072000110203D1E4900081F0A3F0E5216401708F
:1007300004E04408F0E51D64017007900082E04485
:1007400004F0E4900077F0A3F0E5236401700790D3
:100750000077E04404F0E51F64017007900077E043
:100760004402F0E52064017007900077E04401F056
:10077000E51E64017013901D629325E02470F582DC
:10078000E43400F583E04408F0E51C640170139044
:100790001D5E9325E02470F582E43400F583E04487
:1007A00008F0E52664017013901D5F9325E0247026
:1007B000F582E43400F583E04408F0E52764017035
:1007C00013901D609325E02470F582E43400F583D6
:1007D000E04408F0E52864017013901D639325E060
:1007E0002470F582E43400F583E04408F0E52964E0
:1007F000017013901D649325E02470F582E43400A9
:10080000F583E04408F0E52A64017013901D6693B7
:1008100025E02470F582E43400F583E04408F0E537
:100820002264017013901D619325E02470F582E429
:100830003400F583E04408F0E52464017013901D52
:10084000659325E02470F582E43400F583E04408E4
:10085000F0E52564017013901D679325E02470F581
:1008600082E43400F583E04408F07B017A00796F7C
:100870007D407C00021AA0E709F608DFFA8046E70F
:1008800009F208DFFA803E88828C83E709F0A3DF53
:10089000FA8032E309F608DFFA8078E309F208DF2C
:1008A000FA807088828C83E309F0A3DFFA80648980
:1008B000828A83E0A3F608DFFA805889828A83E07F
:1008C000A3F208DFFA804C80D280FA80C680D48000
:1008D0006980F28033801080A680EA809A80A880A8
:1008E000DA80E280CA803389828A83ECFAE493A3B7
:1008F000C8C582C8CCC583CCF0A3C8C582C8CCC546
:1009000083CCDFE9DEE7800D89828A83E493A3F656
:1009100008DFF9ECFAA9F0EDFB2289828A83ECFA70
:10092000E0A3C8C582C8CCC583CCF0A3C8C582C823
:10093000CCC583CCDFEADEE880DB89828A83E4935E
:10094000A3F208DFF980CC88F0EF60010E4E60C39F
:1009500088F0ED2402B4040050B9F582EB2402B40F
:10096000040050AF23234582239008C773BB0106C0
:1009700089828A83E0225002E722BBFE02E32289B9
:10098000828A83E49322BB010CE58229F582E58308
:100990003AF583E0225006E92582F8E622BBFE06FE
:1009A000E92582F8E222E58229F582E5833AF5839A
:1009B000E49322EF8DF0A4A8F0CF8CF0A428CE8D84
:1009C000F0A42EFE22BC000BBE0029EF8DF084FFA8
:1009D000ADF022E4CCF875F008EF2FFFEE33FEEC1B
:1009E00033FCEE9DEC984005FCEE9DFE0FD5F0E942
:1009F000E4CEFD22EDF8F5F0EE8420D21CFEADF041
:100A000075F008EF2FFFED33FD4007985006D5F045
:100A1000F222C398FD0FD5F0EA22C5F0F8A3E02832
:100A2000F0C5F0F8E582158270021583E038F022F7
:100A3000BB0110E58229F582E5833AF583E0F5F004
:100A4000A3E0225009E92582F886F008E622BBFEE1
:100A50000AE92582F8E2F5F008E222E5832AF58327
:100A6000E993F5F0A3E9932275F008758200EF2F62
:100A7000FFEE33FECD33CDCC33CCC58233C5829B64
:100A8000ED9AEC99E58298400CF582EE9BFEED9A8A
:100A9000FDEC99FC0FD5F0D6E4CEFBE4CDFAE4CC26
:100AA000F9A88222B800C1B90059BA002DEC8BF028
:100AB00084CFCECDFCE5F0CBF97818EF2FFFEE33E5
:100AC000FEED33FDEC33FCEB33FB10D70399400410
:100AD000EB99FB0FD8E5E4F9FA227818EF2FFFEE37
:100AE00033FEED33FDEC33FCC933C910D7059BE968
:100AF0009A4007EC9BFCE99AF90FD8E0E4C9FAE4C4
:100B0000CCFB2275F010EF2FFFEE33FEED33FDCC62
:100B100033CCC833C810D7079BEC9AE899400AED4C
:100B20009BFDEC9AFCE899F80FD5F0DAE4CDFBE4F4
:100B3000CCFAE4C8F922EB9FF5F0EA9E42F0E99D79
:100B400042F0E89C45F022E8600FECC313FCED1383
:100B5000FDEE13FEEF13FFD8F122ECF0A3EDF0A3AE
:100B6000EEF0A3EFF022A8828583F0D083D082122A
:100B70000B7D120B7D120B7D120B7DE473E493A3AE
:100B8000C583C5F0C583C8C582C8F0A3C583C5F0B9
:100B9000C583C8C582C822EC8EF0A4CCC5F0CCCDEC
:100BA000F8EFA4CEC5F02DFDE43CFCE8A42EC8C5AA
:100BB000F03DFDE43CFCEFA4FFE5F028FEE43DFD44
:100BC000E43CFC22E4F508C3E5089404E4940050F6
:100BD00032AF08121BD2E50825E02400F582E43488
:100BE00000F583EEF0A3EFF0AF08121BF1E5082546
:100BF000E02408F582E43400F583EEF0A3EFF0057D
:100C00000880C4E4F508C3E5089404E49400504D5A
:100C10007B007A007909AF08121A30E50875F009EF
:100C2000A42410F582E43400F583E509F0A3E50A75
:100C3000F0E50875F009A42412F582E43400F58388
:100C4000E50BF0A3E50CF0E50875F009A42418F510
:100C500082E43400F583E50DF0050880A97F0112D8
:100C60001BF1900034EEF0A3EFF07F03121BF19024
:100C70000036EEF0A3EFF090003C7401F0E4F508CC
:100C8000C3E5089405E494004003020DD4E508751B
:100C9000F009A42410F582E43400F583E0FEA3E01B
:100CA000FFE50875F009A42412F582E43400F58309
:100CB000E0FCA3E0FD120B97E47BE87A03F9F8125D
:100CC0000AA4E50875F009A42414F582E43400F5BB
:100CD00083120B5AE50875F009A42412F582E43456
:100CE00000F583E0FEA3E0FF7C007D641209C5E50A
:100CF0000875F007A4243DF582E43400F583EEF096
:100D0000A3EFF0E50875F009A42410F582E434009F
:100D1000F583E0FEA3E0FF7C007D641209C5E508D1
:100D200075F007A4243FF582E43400F583EEF0A3C8
:100D3000EFF0E50875F009A42414F582E43400F519
:100D400083E0FCA3E0FDA3E0FEA3E0FFE47B64FA04
:100D5000F9F8120AA4E47BFF7AFFF9F8C3120B3604
:100D6000E508501475F007A42441F582E43400F539
:100D70008374FFF0A3F0803575F009A42414F58284
:100D8000E43400F583E0FCA3E0FDA3E0FEA3E0FF74
:100D9000E47B64FAF9F8120AA4E50875F007A424C4
:100DA00041F582E43400F583EEF0A3EFF0E5087539
:100DB000F009A42418F582E43400F583E0FFE50887
:100DC00075F007A42443F582E43400F583EFF005C1
:100DD00008020C807B017A007961121B6E7B017A1C
:100DE00000796B121B9012003DEF600F900060E0E5
:100DF0007F0070027F01900060EFF0900060E0FFE4
:100E0000121CDF121CA6C3EF9543FDEE9542FCC3F6
:100E1000ED9464EC9400400D8E428F437B017A0088
:100E2000793D12005E228F0B8E0A8D098C08E4FF3B
:100E3000FEFDFCAB0BAA0AA909A808C3120B367069
:100E40000A750B80750A25F509F508853F0F853E63
:100E50000E853D0D853C0CE47B02FAF9F8AF0BAE34
:100E60000AAD09AC08120AA4EF250FFFEE350EFEFD
:100E7000ED350DFDEC350CFCAB0BAA0AA909A80851
:100E8000120AA48E2D8F2EC3E52E9404E52D940016
:100E90005006752D00752E04E52DC313F52BE52E98
:100EA00013F52C452B7005F52B752C01E4F532F567
:100EB00035F531F52FF530F533F5347536FF900003
:100EC000DDF0A3F0A3F0A3F0A3F0A3F0A3F0A3F050
:100ED000A3F0A3F090F001F090F006F07D01FC7F0C
:100EE000011200037D017C007F061200037D027F5A
:100EF000011219097D027F0612190990F024E054AD
:100F0000FDF0A3E0548FF090F024E054FEF0A3E055
:100F10004480F090F024E054FBF0E054DFF043A96B
:100F20000253C0FD53C0BF43A910D2AF229000604E
:100F30007401F0121748E4FBEBC39404E4940050EE
:100F400023EB25E02400F582E43400F583E4F0A3EC
:100F5000F0EB25E02408F582E43400F583E4F0A307
:100F6000F00B80D4E4FBEBC394057480948050496B
:100F7000EB75F007A4243DF582E43400F583E4F03A
:100F8000A3F0EB75F007A4243FF582E43400F58369
:100F9000E4F0A3F0EB75F007A42441F582E43400FB
:100FA000F583E4F0A3F0EB75F007A42443F582E4A5
:100FB0003400F583E4F00B80ADE4FBEBC39405E46F
:100FC0009400504CEB75F009A42410F582E4340031
:100FD000F583E4F0A3F0EB75F009A42412F582E4A4
:100FE0003400F583E4F0A3F0EB75F009A42414F5C4
:100FF00082E43400F583120B6600000000EB75F00C
:1010000009A42418F582E43400F583E4F00B80ABE6
:10101000021B1F8D09A907744029F8E6FF7021E51E
:101020000964A560030210E9E975F00BA424C7F573
:1010300082E43400F583E509F0744029F876012252
:10104000E975F00BA424C7F582E43400F583E5824A
:101050002FF582E43583F583E509F00FEFC3940B98
:10106000E494005007744029F8A60722E975F00BB4
:10107000A424D1F582E43400F583E0645A702FE9AA
:1010800075F00BA424C8F582E43400F583E0FF7EFC
:1010900000C39401EE94004015D3EF9403EE940046
:1010A000500CAF01121265744029F8E4F622E925CC
:1010B000E024C3F582E43400F583E475F001120AFC
:1010C0001AE50964A57F0070027F01744029F8A623
:1010D00007744029F8E66011E975F00BA424C7F500
:1010E00082E43400F583E509F022AC07ECD39401E7
:1010F00074809480400ED3E50C94017480948040F9
:1011000003750C01ECD3940174809480401FA804F3
:101110007401088002C333D8FCF45595FFA804E598
:101120000C088002C333D8FC4FF5958020EC25E0F5
:10113000FFF87403088002C333D8FCF45596FEA868
:1011400007E50C088002C333D8FC4EF596A804745A
:1011500001088002C333D8FCF45592FFA804ED08BF
:101160008002C333D8FC4FF592A8047401088002B2
:10117000C333D8FCF45594FFAE03A804EE088002F4
:10118000C333D8FC4FF594AF02A804EF088002C324
:1011900033D8FCFFA8047401088002C333D8FCFED6
:1011A000F455934FF593EE429122EFB409004003BA
:1011B0000212589011BAF82828730211D50211E0D2
:1011C0000211F0021200021210021220021230026A
:1011D000124002125090F00E741FF053B2F080785B
:1011E00090F00D741FF0E5B254F04401F5B2806840
:1011F00090F007741FF0E5B254F04402F5B2805845
:1012000090F006741FF0E5B254F04403F5B2804844
:1012100090F005741FF0E5B254F04404F5B2803844
:1012200090F004741FF0E5B254F04405F5B2802844
:1012300090F003741FF0E5B254F04406F5B2801844
:1012400090F002741FF0E5B254F04407F5B2800844
:10125000E5B254F04408F5B2EDC454F0FFE5B254E1
:101260000F4FF5B222EF75F00BA424C7F582E434DA
:1012700000AD82F50A8D0BF583A3E0FBEF25E0FAC4
:10128000E50B2402121C91EA75F005A424AFF58247
:10129000E43400F583EEF0A3EFF0E50B2404121C18
:1012A00091EA75F005A424B1F582E43400F583EEEB
:1012B000F0A3EFF0EB54017F0060027F01EA75F0CC
:1012C00005A424B3F582E43400F583EFF0E50B24A4
:1012D00006121C91EA75F005A424B4F582E43400EA
:1012E000F583EEF0A3EFF0E50B2408121C91EA75EC
:1012F000F005A424B6F582E43400F583EEF0A3EF04
:10130000F0EB54027F0060027F01EA75F005A4242F
:10131000B8F582E43400F583EFF022C0E0C0F0C0FD
:1013200083C082C0D075D000C000C004C005C00614
:10133000C00790F024E020E5030213B9E054DFF089
:10134000E53224FE601814603F24027063AF361249
:10135000004EEF705B753202F535F531805BAF36CC
:1013600012004EEF600FAF35A8077401088002C36A
:1013700033D8FC42310535AF35C3EF9408748094FF
:101380008040367532038031AF3612004EEF60096F
:10139000AD31AF361218B68015AF36EF25E024E137
:1013A000F582E43400F583E475F001120A1A800036
:1013B0007532007536FF121CC8D007D006D005D094
:1013C00004D000D0D0D082D083D0F0D0E032EF254E
:1013D000E025E0FFC290C291000000000000000084
:1013E000D2920000000000000000D2910000000036
:1013F00000000000C2910000000000000000C29246
:101400000000000000000000D29100000000000079
:101410000000C2910000000000000000D292000015
:10142000000000000000D291000000000000000059
:10143000E4FEEEC39406748094805017C291EF339B
:1014400092920000000000000000D291EF25E0FF22
:101450000E80DFE4FEEEC39404748094805017C2C3
:1014600091ED139292D2910000000000000000ED77
:10147000C313FD0E80DFC291C292D29022C290C2ED
:10148000910000000000000000D292000000000067
:10149000000000D2910000000000000000C2910096
:1014A00000000000000000C29200000000000000E8
:1014B00000D2910000000000000000C29100000076
:1014C0000000000000C2920000000000000000D2F6
:1014D000910000000000000000E4FEEEC3940874D8
:1014E0008094805017C291EF339292000000000068
:1014F000000000D291EF25E0FF0E80DFC2910000D6
:10150000000000000000C292000000000000000087
:10151000D2910000000000000000C2910000000015
:1015200000000000D2902278FFE4F6D8FD90000081
:101530007F007E02E4F0A3DFFCDEFA758144021531
:101540007C021C65E493A3F8E493A34003F68001B6
:10155000F208DFF48029E493A3F85407240CC8C3ED
:1015600033C4540F4420C8834004F456800146F627
:10157000DFE4800B0102040810204080901CE7E4A7
:101580007E019360BCA3FF543F30E509541FFEE485
:1015900093A360010ECF54C025E060A840B8E49347
:1015A000A3FAE493A3F8E493A3C8C582C8CAC58389
:1015B000CAF0A3C8C582C8CAC583CADFE9DEE7800E
:1015C000BEAA05E5E2540FFEEBD39E4007E5E254C8
:1015D000F04BF5E2EF14601B14602C2402703F53B3
:1015E0009E3F539EF7753F00753E48753DE8753C3C
:1015F00001802BE59E543F4440F59EE4F53F753E47
:101600007DF53DF53C8017439E08E59E543F4480A0
:10161000F59E753F00753E12753D7A753C00E59E5E
:1016200054F84AF59EE5E2540FFFEBC39F5007E5DF
:10163000E254F04BF5E2AF3FAE3EAD3DAC3CAB0209
:10164000A803120B478F3F8E3E8D3D8C3C22C0E09D
:10165000C0F0C083C082C0D075D000C000C001C03F
:1016600002C003C004C005C006C007E5C030E11DCC
:1016700053C0FDAF32EF7007F536121A69800E9035
:1016800000E6E004F070069000E5E004F0E5C0300C
:10169000E61E53C0BFAF32EF7008753601121A69EB
:1016A000800E9000E6E004F070069000E5E004F0A3
:1016B000E5C830E70653C87F121CD4D007D006D047
:1016C00005D004D003D002D001D000D0D0D082D039
:1016D00083D0F0D0E03290F00FE4F07D01FC7F0782
:1016E0001219F67D027F0712195853C87FE47B0256
:1016F000FAF9F8AF3FAE3EAD3DAC3C120AA4E47B34
:10170000E87A03F9F8120AA48F0B8E0A8D098C0867
:10171000C3E49FFFE49EAD07FC53F4BFE5F454F827
:101720004401F5F4AF04EFF5F5AF05EFF5F653F42A
:101730007F43A90443F44043A910D2AFE4F53AF53E
:101740003BF539F538F53722E4FFEFC39402E49412
:1017500000501974402FF8E4F6EF25E024C3F58219
:10176000E43400F583E4F0A3F00F80DEE4FFEFC380
:101770009404E494005037EF75F005A424AFF5828B
:10178000E43400F583E4F0A3F0EF75F005A424B190
:10179000F582E43400F583E4F0A3F0EF75F005A4DE
:1017A00024B3F582E43400F583E4F00F80C0229086
:1017B000F008E4F0A3F0A3F0F50C7B01FAFDFF12B2
:1017C00010EAE4F50C7B01FAFD7F011210EAE4F562
:1017D0000C7B01FAFD7F021210EAD290D291C292E4
:1017E0007F0112147D7F0312147D7F1812147D7FF8
:1017F000E312147DE4FCECC3944074809480500A9E
:10180000AF04E4FD1213CE0C80EC22E544901D6879
:1018100093FF7D011211AA121C4D121ACFE5442527
:10182000E02407F582E43401F583EEF0A3EFF07CC9
:101830000C7DE4120B97E47BFF7A0FF9F8120AA4EF
:10184000E54425E0240FF582E43401F583EEF0A3AE
:10185000EFF00544C3E5449404E494004003E4F548
:101860004422EFC39402E49400500E74332FF8E640
:10187000FE742F2FF8E6B506037F002274332FF88D
:10188000E6FEEFC454F024E7F582E43400F583E586
:10189000822EF582E43583F583E0FE74332FF8065B
:1018A00074332FF8E6C39410E49400400674332F89
:1018B000F8E4F6AF0622742F2FF8E604FEC3941066
:1018C000E494004002E4FE74332FF8E66E60267460
:1018D0002F2FF8E6FCEFC454F024E7F582E434003F
:1018E000F583E5822CF582E43583F583EDF0742FE2
:1018F0002FF8A60622EF25E024DDF582E43400F57A
:1019000083E475F001120A1A22EF25E0FEF8740351
:10191000088002C333D8FCF455ABFCA806ED088060
:1019200002C333D8FC4CF5ABEF1313543FFE75F0F4
:1019300003A4FCEF540325E0FBF8EC088002C3335A
:10194000D8FCF455AAFCEE8DF0A4FEA80308800292
:10195000C333D8FC4CF5AA22EF25E0FEF874030847
:101960008002C333D8FCF455ADFCA806ED08800214
:10197000C333D8FC4CF5ADEF1313543FFE75F003A1
:10198000A4FCEF540325E0FBF8EC088002C333D835
:10199000FCF455ACFCEE8DF0A4FEA803088002C355
:1019A00033D8FC4CF5AC22E4F544F508C3E50894C3
:1019B00004E494005032E50825E02407F582E4347D
:1019C00001F583E4F0A3F0E50825E0240FF582E4B7
:1019D0003401F583E4F0A3F0E508901D6893FF7DE2
:1019E000011211AA050880C475E10412004643AE35
:1019F000807F01021C2FAB07A8037401088002C37B
:101A000033D8FCFAF4F95594FFAE05A803EE08802C
:101A100002C333D8FC4FF594AF04A803EF0880024B
:101A2000C333D8FCFFE593594FF593EAF452912262
:101A30008B0E8A0F8910EFC39404E494005008AC15
:101A400002AD01ED4C70037F0022EF75F005A42478
:101A5000AFF9740035F0FA7B01A810AC0FAD0E7E23
:101A6000007F051209477F0122753201F535F531F6
:101A7000C3E4952EFFE4952D90F023F0EF90F02233
:101A8000F0C3E4952CFDE4952B90F021F0AF05EF29
:101A900090F020F090F024E054DFF0E04402F022D7
:101AA0008C188D19E4F51AF51BC3E51B9519E51A79
:101AB0009518501AAF1B12096DFD1213CE7401292F
:101AC000F9E43AFA051BE51B70DF051A80DB22E515
:101AD000AE54407E0060047F0180027F00EF4E60C4
:101AE000EE53AEBFAFB4EF75F010A4FFAEF0E5B5A6
:101AF000540FFDEF4DFF22E4F508C3E5089402E41E
:101B00009400501AAF08121C10EF600EAF081218A4
:101B100062AD07AF0812101380EA050880DC22E4EA
:101B2000FFEFC3944074809480500F746F2FF58240
:101B3000E43400F583E4F00F80E77B017A00796FED
:101B40007D407C00021AA0C0E0C0D075D000C00764
:101B5000053BE53B7002053AAF39EF600A1539AF36
:101B600039EF7003753801D007D0D0D0E0328B0E3A
:101B70008A0F8910AE02AF01EF4E6013A801AC02CC
:101B8000AD037B017A0079DD7E007F0A12094722CE
:101B90008B0E8A0F8910AE02AF01EF4E6013A801C1
:101BA000AC02AD037B017A0079C37E007F04120989
:101BB00047227B037D01E4FF1215C1121C7C121722
:101BC000AF1219A77F007EC27D017C00120E260293
:101BD00016D6EFC39404E494004004E4FEFF22EF21
:101BE00025E02407F582E43401F583E0FEA3E0FF5D
:101BF00022EFC39404E494004004E4FEFF22EF25A6
:101C0000E0240FF582E43401F583E0FEA3E0FF2237
:101C1000EFC39402E4940040037F002274332FF852
:101C2000E6FE742F2FF8E66E7F0060027F0122E54A
:101C30008954FC4401F589D28CEF600E758CE075F7
:101C40008AC0308DFDC28D1F80EFC28C22E5AE545C
:101C5000107E0060047F0180027F00EF64014E600F
:101C6000EC43AE1022121BB2120F2D12180B1200F1
:101C70004A121AF7121CB9120BC480EF90F00BE451
:101C8000F0F50C7B01FAFD7F031210EA7F01021CC4
:101C9000DFFFE4350AFEAD07AC068D828C83E0FEE3
:101CA000A3E0FDEDFF22A2AFE433C2AFAB3BAA3A03
:101CB00024FF92AFAE02AF0322AF38EF6009E4F524
:101CC000382097037537012290F024E054FDF0E0AE
:101CD00054DFF022AF39EF7005753914F53822EF73
:101CE000C36001D3929322043C01E84800000B003A
:101CF00007050C0D0F000F0D0B0007050C0D0F0055
:101D00000F0D0B0007050C0D0E060C0E060A0A0E31
:101D10000E0E0E060C0E060A0A0E0E0E0E060C0E07
:101D2000060A0E0E0804060D0A0D08070A0B0E0B14
:101D3000080C0E0F0A0F070702010B060B050E0118
:101D40000D050D0703010F070F050C0D0E0F1011E8
:101D500012131415161718191A1B1C1D1E1F0B0A17
:0C1D600008070605030201000706050441
:00000001FF
