:1000000002109AAB07A8037401088002C333D8FC1E
:10001000FAF4F955FDFFAE05A803EE088002C333DC
:10002000D8FC4FF5FDAF04A803EF088002C333D816
:10003000FCFFE5FC594FF5FCEAF452FA2253AEDF1F
:0200400022227A
:1000430002125190F00BE4F0F51B7B01FAFD7F03E4
:10005300120DC67F010216290214288B188A1989EA
:100063001AE4F51BC3E51B940574809480400302D6
:100073000213E51B75F007A4AB18251AF9E519352A
:10008300F0FA900006120890605BAA19A91A75F09D
:1000930007E51BA4F58285F083120924FBAAF07CF3
:1000A300007D64FFAE021208CF8F1C7C007D64AF1D
:1000B30003AE021208CF7E007F0ACFCDCFCECCCEC7
:1000C3001208CF8F1DAB18AA1975F007E51BA4F50D
:1000D3008285F083120924FFAEF07C007D0A1208AA
:1000E300CF8D1E8007E4F51CF51DF51EE51C70671A
:1000F300E51D7063E51E705F90166C93FF4401FE6F
:10010300E51B25E02494F582E43416F583E4932576
:10011300E02400F582E43400F583EEF0E51B25E0EE
:100123002494F582E43416F583E49325E02401F561
:1001330082E43400F583EFF0E51B25E02495F58296
:10014300E43416F583E49325E02400F582E43400D7
:10015300F583EEF00201F2E51D25E0246CF582E45F
:100163003416F583E4934401FFE51B25E02494F55D
:1001730082E43416F583E49325E02400F582E43425
:1001830000F583EFF0E51D25E0246DF582E43416D8
:10019300F583E493FFE51B25E02494F582E434160C
:1001A300F583E49325E02401F582E43400F583EF3D
:1001B300F0E51E25E0246CF582E43416F583E49320
:1001C3004401FFE51B25E02495F582E43416F5830D
:1001D300E49325E02400F582E43400F583EFF0E5B1
:1001E3001E25E0246DF582E43416F583E493FFE5E0
:1001F3001B25E02495F582E43416F583E49325E08A
:100203002401F582E43400F583EFF0051B02006757
:10021300E4F51BC3E51B940574809480400302033B
:10022300CEE51B75F007A4AB18251AF9E51935F0CF
:10023300FA900002120924FBAAF07C007D64FFAE51
:10024300021208CF8F1C7C007D64AF03AE0212083C
:10025300CF7E007F0ACFCDCFCECCCE1208CF8F1D5D
:10026300E51B75F007A4AB18251AF9E51935F0FA63
:10027300900002120924FFAEF07C007D0A1208CF21
:100283008D1EE51C6003020317E51D25E02480F5A0
:1002930082E43416F583E493FFE51B25E0249EF501
:1002A30082E43416F583E49325E02400F582E434F4
:1002B30000F583EFF0E51D25E02481F582E4341693
:1002C300F583E4934408FFE51B25E0249EF582E4CF
:1002D3003416F583E49325E02401F582E43400F534
:1002E30083EFF0E51E25E02480F582E43416F583E0
:1002F300E493FFE51B25E0249FF582E43416F583A0
:10030300E49325E02400F582E43400F583EFF0E57F
:100313001E02039DE51C25E02480F582E43416F5D6
:1003230083E493FFE51B25E0249EF582E43416F570
:1003330083E49325E02400F582E43400F583EFF0B1
:10034300E51C25E02481F582E43416F583E493FF6C
:10035300E51B25E0249EF582E43416F583E493251A
:10036300E02401F582E43400F583EFF0E51D25E098
:100373002480F582E43416F583E493FFE51B25E03E
:10038300249FF582E43416F583E49325E02400F5F5
:1003930082E43400F583EFF0E51D25E02481F58246
:1003A300E43416F583E4934408FFE51B25E0249F1A
:1003B300F582E43416F583E49325E02401F582E421
:1003C3003400F583EFF0051B020216E4F51BC3E5C9
:1003D3001B9405748094804003020724E51B75F089
:1003E30007A4AB18251AF9E51935F0FA90000412A1
:1003F3000924F52185F020E4F51F900006120890EA
:100403006053C3E52194E8E52094034012751F016E
:10041300AE20AF217C007D0A1208CF8E208F21AE43
:1004230020AF217C007D641208CF8F1CAE20AF214A
:100433007C007D641208CF7E007F0ACFCDCFCECC67
:10044300CE1208CF8F1DAE20AF217C007D0A12088B
:10045300CF8D1E8009E4F51CF51DF51EF51F7408EC
:10046300251BF8E4F6740D251BF876017412251B81
:10047300F8E4F6AF1CFEEF6003020502E51D707F92
:10048300E51E707BE51F707790168093FDE51B25B5
:10049300E024A8F582E43416F583E49325E02400F0
:1004A300F582E43400F583EDF0E51B25E024A8F59F
:1004B30082E43416F583E49325E02401F582E434E1
:1004C30000F583EDF0E51B25E024A9F582E434165D
:1004D300F583E49325E02400F582E43400F583ED0D
:1004E300F0E51B25E024A9F582E43416F583E493B3
:1004F30025E02401F582E43400F583ED0205BFEF26
:100503004E60030205CAE51F60030205CAE51D2507
:10051300E02480F582E43416F583E493FFE51B259C
:10052300E024A8F582E43416F583E49325E024005F
:10053300F582E43400F583EFF0E51D25E02481F531
:1005430082E43416F583E493FFE51B25E024A8F544
:1005530082E43416F583E49325E02401F582E43440
:1005630000F583EFF0E51E25E02480F582E43416E0
:10057300F583E493FFE51B25E024A9F582E4341613
:10058300F583E49325E02400F582E43400F583EF5A
:10059300F0E51E25E02481F582E43416F583E49327
:1005A300FFE51B25E024A9F582E43416F583E493E3
:1005B30025E02401F582E43400F583EFF07412257D
:1005C3001BF8760102071FD3E51C94007480948006
:1005D300500302071FE51F6003020668E51C25E0C0
:1005E3002480F582E43416F583E493FFE51B25E0CC
:1005F30024A8F582E43416F583E49325E02400F57A
:1006030082E43400F583EFF0E51C25E02481F582D4
:10061300E43416F583E493FFE51B25E024A8F58273
:10062300E43416F583E49325E02401F582E43400F1
:10063300F583EFF0E51D25E02480F582E43416F51B
:1006430083E493FFE51B25E024A9F582E43416F542
:1006530083E49325E02400F582E43400F583EFF08E
:10066300E51D0206F57408251BF87601E51D25E056
:100673002480F582E43416F583E493FFE51B25E03B
:1006830024A8F582E43416F583E49325E02400F5E9
:1006930082E43400F583EFF0E51D25E02481F58243
:1006A300E43416F583E493FFE51B25E024A8F582E3
:1006B300E43416F583E49325E02401F582E4340061
:1006C300F583EFF0E51E25E02480F582E43416F58A
:1006D30083E493FFE51B25E024A9F582E43416F5B2
:1006E30083E49325E02400F582E43400F583EFF0FE
:1006F300E51E25E02481F582E43416F583E493FFB7
:10070300E51B25E024A9F582E43416F583E493255B
:10071300E02401F582E43400F583EFF0051B0203C6
:10072300D1E4900012F0A3F0E50D64017004E044FD
:1007330008F0E50964017007900013E04404F0E455
:10074300900008F0A3F0E50F64017007900008E043
:100753004404F0E50B64017007900008E04402F0E4
:10076300E50C64017007900008E04401F0E50A64B9
:100773000170139016AC9325E02401F582E4340054
:10078300F583E04408F0E508640170139016A8931C
:1007930025E02401F582E43400F583E04408F0E524
:1007A30012640170139016A99325E02401F582E4E5
:1007B3003400F583E04408F0E513640170139016E8
:1007C300AA9325E02401F582E43400F583E044088C
:1007D300F0E514640170139016AD9325E02401F540
:1007E30082E43400F583E04408F0E51564017013F6
:1007F3009016AE9325E02401F582E43400F583E0FE
:100803004408F0E516640170139016B09325E024B4
:1008130001F582E43400F583E04408F0E50E640159
:1008230070139016AB9325E02401F582E43400F5B0
:1008330083E04408F0E510640170139016AF93252C
:10084300E02401F582E43400F583E04408F0E51187
:10085300640170139016B19325E02401F582E4340A
:1008630000F583E04408F07B017A0079007D407C49
:100873000002145FBB010689828A83E0225002E7EB
:1008830022BBFE02E32289828A83E49322BB010C0A
:10089300E58229F582E5833AF583E0225006E925CE
:1008A30082F8E622BBFE06E92582F8E222E58229E8
:1008B300F582E5833AF583E49322EF8DF0A4A8F063
:1008C300CF8CF0A428CE8DF0A42EFE22BC000BBE4C
:1008D3000029EF8DF084FFADF022E4CCF875F00829
:1008E300EF2FFFEE33FEEC33FCEE9DEC984005FC5E
:1008F300EE9DFE0FD5F0E9E4CEFD22EDF8F5F0EE26
:100903008420D21CFEADF075F008EF2FFFED33FD10
:100913004007985006D5F0F222C398FD0FD5F0EAB0
:1009230022BB0110E58229F582E5833AF583E0F5E0
:10093300F0A3E0225009E92582F886F008E622BBFD
:10094300FE0AE92582F8E2F5F008E222E5832AF5BA
:1009530083E993F5F0A3E99322E88FF0A4CC8BF01D
:10096300A42CFCE98EF0A42CFC8AF0EDA42CFCEA68
:100973008EF0A4CDA8F08BF0A42DCC3825F0FDE9A2
:100983008FF0A42CCD35F0FCEB8EF0A4FEA9F0EB98
:100993008FF0A4CFC5F02ECD39FEE43CFCEAA42DA4
:1009A300CE35F0FDE43CFC2275F008758200EF2F94
:1009B300FFEE33FECD33CDCC33CCC58233C5829B22
:1009C300ED9AEC99E58298400CF582EE9BFEED9A48
:1009D300FDEC99FC0FD5F0D6E4CEFBE4CDFAE4CCE4
:1009E300F9A88222B800C1B90059BA002DEC8BF0E6
:1009F30084CFCECDFCE5F0CBF97818EF2FFFEE33A3
:100A0300FEED33FDEC33FCEB33FB10D703994004CD
:100A1300EB99FB0FD8E5E4F9FA227818EF2FFFEEF4
:100A230033FEED33FDEC33FCC933C910D7059BE925
:100A33009A4007EC9BFCE99AF90FD8E0E4C9FAE481
:100A4300CCFB2275F010EF2FFFEE33FEED33FDCC20
:100A530033CCC833C810D7079BEC9AE899400AED0A
:100A63009BFDEC9AFCE899F80FD5F0DAE4CDFBE4B2
:100A7300CCFAE4C8F922EB9FF5F0EA9E42F0E99D37
:100A830042F0E89C45F022E8600FECC313FCED1341
:100A9300FDEE13FEEF13FFD8F122EC8EF0A4CCC5CC
:100AA300F0CCCDF8EFA4CEC5F02DFDE43CFCE8A4DA
:100AB3002EC8C5F03DFDE43CFCEFA4FFE5F028FEA5
:100AC300E43DFDE43CFC22E4F517C3E5179404E49C
:100AD30094004003020BA6AF17121572E51725E029
:100AE3002440F582E43400F583EEF0A3EFF0AF1772
:100AF300121591E51725E02448F582E43400F583C7
:100B0300EEF0A3EFF0E51725E02440F582E434008E
:100B1300F583E0FEA3E0FF7C007D0A1208CFE51712
:100B230075F007A42450F582E43400F583EEF0A3B6
:100B3300EFF0E51725E02448F582E43400F583E07F
:100B4300FEA3E0FF7C007D0A1208CFE51775F007CE
:100B5300A42452F582E43400F583EEF0A3EFF0E52C
:100B63001725E02448F582E43400F583E0FEA3E092
:100B7300FF7C007D0A1208CFE51775F007A4245403
:100B8300F582E43400F583EEF0A3EFF0E51775F09A
:100B930007A42456F582E43400F5837401F00517A5
:100BA300020ACDE4900072F0A3E0FF121629121698
:100BB3001EEF600E121507900075EFF0900074742D
:100BC30001F00534C3E534941074809480400CE440
:100BD300F5347B017A00795012005E228F17E51DF0
:100BE3007010EF700553877F800353977FE4F51EE2
:100BF300800FE51770054387808003439780751E38
:100C030001ED6076146003020CE3E517700AE597C3
:100C130054DF4420F5978008E59754BF4440F59787
:100C23005389BF53897FE58954CF4420F589E51E55
:100C33002401FFE433FE3395E0FDFCAB32AA31A976
:100C430030A82F12095CC004C005C006C007E47FAA
:100C530040FEFDFCAB1CAA1BA91AA81912095CA82B
:100C630004A905AA06AB07D007D006D005D0041205
:100C730009E7EFF404F58DD28E22E517700553973B
:100C8300DF80035397BFE5F454F84401F5F4E51E00
:100C93002401FFE433FE3395E0FDFCAB32AA31A916
:100CA30030A82F12095CC004C005C006C007E47F4A
:100CB30040FEFDFCAB1CAA1BA91AA81912095CA8CB
:100CC30004A905AA06AB07D007D006D005D00412A5
:100CD30009E7C3E49FFFE49EF5F5EFF5F643F4401F
:100CE300228F1A8E198D188C17E4FFFEFDFCAB1AA8
:100CF300AA19A918A817C3120A79700A751A807558
:100D03001925F518F517E47B10FAF9F8AF32AE316F
:100D1300AD30AC2F1209E78F1E8E1D8D1C8C1BE48A
:100D23007B02FAF9F8AF1AAE19AD18AC171209E73E
:100D3300EF251EFFEE351DFEED351CFDEC351BFCCE
:100D4300AB1AAA19A918A8171209E78E288F29C365
:100D5300E5299404E52894005006752800752904B4
:100D6300E528C313F526E52913F52745267005F570
:100D730026752701E4F52CF52EF52BF52AF52D9094
:100D8300F006F07D01FC7F061200037D027F061250
:100D9300138A90F024E054FDF0A3E0548F4420F034
:100DA30090F024E054FEF0A3E0547FF090F024E0B0
:100DB30054FBF0E054DFF043A90253C0BF43A91032
:100DC300D2AF22AC07ECD3940174809480400ED34D
:100DD300E51B9401748094804003751B01ECD3944C
:100DE3000174809480401FA8047401088002C333F7
:100DF300D8FCF45595FFA804E51B088002C333D83B
:100E0300FC4FF5958020EC25E0FFF8740308800281
:100E1300C333D8FCF45596FEA807E51B088002C32C
:100E230033D8FC4EF596A8047401088002C333D866
:100E3300FCF45592FFA804ED088002C333D8FC4F9D
:100E4300F592A8047401088002C333D8FCF45594C6
:100E5300FFAE03A804EE088002C333D8FC4FF59419
:100E6300AF02A804EF088002C333D8FCFFA80474C0
:100E730001088002C333D8FCFEF455934FF593EE7B
:100E8300429122EFB409004003020F34900E96F80A
:100E9300282873020EB1020EBC020ECC020EDC0235
:100EA3000EEC020EFC020F0C020F1C020F2C90F032
:100EB3000E741FF053B2F0807890F00D741FF0E5BC
:100EC300B254F04401F5B2806890F007741FF0E566
:100ED300B254F04402F5B2805890F006741FF0E566
:100EE300B254F04403F5B2804890F005741FF0E566
:100EF300B254F04404F5B2803890F004741FF0E566
:100F0300B254F04405F5B2802890F003741FF0E565
:100F1300B254F04406F5B2801890F002741FF0E565
:100F2300B254F04407F5B28008E5B254F04408F532
:100F3300B2EDC454F0FFE5B2540F4FF5B222EF25E2
:100F4300E025E0FFC290C291000000000000000015
:100F5300D2920000000000000000D29100000000C7
:100F630000000000C2910000000000000000C292D7
:100F73000000000000000000D2910000000000000B
:100F83000000C2910000000000000000D2920000A7
:100F9300000000000000D2910000000000000000EB
:100FA300E4FEEEC39406748094805017C291EF332D
:100FB30092920000000000000000D291EF25E0FFB4
:100FC3000E80DFE4FEEEC39404748094805017C255
:100FD30091ED139292D2910000000000000000ED09
:100FE300C313FD0E80DFC291C292D29022C290C27F
:100FF300910000000000000000D2920000000000F9
:10100300000000D2910000000000000000C2910027
:1010130000000000000000C2920000000000000079
:1010230000D2910000000000000000C29100000007
:101033000000000000C2920000000000000000D287
:10104300910000000000000000E4FEEEC394087469
:101053008094805017C291EF3392920000000000F9
:10106300000000D291EF25E0FF0E80DFC291000067
:10107300000000000000C292000000000000000019
:10108300D2910000000000000000C29100000000A7
:1010930000000000D2902278FFE4F6D8FD90000013
:1010A3007F007E02E4F0A3DFFCDEFA7581340210D8
:1010B300EF021601E493A3F8E493A34003F680013F
:1010C300F208DFF48029E493A3F85407240CC8C37F
:1010D30033C4540F4420C8834004F456800146F6B9
:1010E300DFE4800B0102040810204080901631E4F5
:1010F3007E019360BCA3FF543F30E509541FFEE417
:1011030093A360010ECF54C025E060A840B8E493D8
:10111300A3FAE493A3F8E493A3C8C582C8CAC5831A
:10112300CAF0A3C8C582C8CAC583CADFE9DEE7809F
:10113300BE9000737401F0E4A3F0A3F0FFEFC39437
:1011430004E494005023EF25E02440F582E43400C6
:10115300F583E4F0A3F0EF25E02448F582E43400BE
:10116300F583E4F0A3F00F80D4E4FFEFC394057498
:101173008094805049EF75F007A42450F582E4343D
:1011830000F583E4F0A3F0EF75F007A42452F58291
:10119300E43400F583E4F0A3F0EF75F007A42454DE
:1011A300F582E43400F583E4F0A3F0EF75F007A4CF
:1011B3002456F582E43400F583E4F00F80AD021485
:1011C300DFAA05E5E2540FFEEBD39E4007E5E254A8
:1011D300F04BF5E2EF14601B14602C2402703F53B4
:1011E3009E3F539EF77532007531487530E8752F71
:1011F30001802BE59E543F4440F59EE4F532753162
:101203007DF530F52F8017439E08E59E543F4480BB
:10121300F59E75320075311275307A752F00E59E93
:1012230054F84AF59EE5E2540FFFEBC39F5007E5E0
:10123300E254F04BF5E2AF32AE31AD30AC2FAB023E
:10124300A803120A8A8F328E318D308C2F22C0E090
:10125300C083C082C0D075D000C000C005C006C026
:101263000790F024E030E55BE054DFF0E52C24FE4A
:10127300601514603E24027044208641752C02756B
:101283002E00752B00802330860FAF2EA807740124
:10129300088002C333D8FC422B052EAF2EC3EF9434
:1012A30008748094804003752C03AF29AE2812156F
:1012B300CE8010308605AF2B12152E8000752C00C2
:1012C300121612D007D006D005D000D0D0D082D0CD
:1012D30083D0E03290F008E4F0A3F0A3F0F51B7B99
:1012E30001FAFDFF120DC6E4F51B7B01FAFD7F0138
:1012F300120DC6E4F51B7B01FAFD7F02120DC6D267
:1013030090D291C2927F01120FF07F03120FF07FF0
:1013130018120FF07FE3120FF0E4FCECC394407457
:10132300809480500AAF04E4FD120F410C80EC223C
:10133300E5339016B293FF7D01120E861215E91262
:1013430014B7E53325E02476F582E43400F583EE23
:10135300F0A3EFF07C0C7DE4120A9DE47BFF7A0F8F
:10136300F9F81209E7E53325E0247EF582E4340039
:10137300F583EEF0A3EFF00533C3E5339404E4946F
:10138300004003E4F53322EF25E0FEF87403088000
:1013930002C333D8FCF455ABFCA806ED088002C3A6
:1013A30033D8FC4CF5ABEF1313543FFE75F003A495
:1013B300FCEF540325E0FBF8EC088002C333D8FCB0
:1013C300F455AAFCEE8DF0A4FEA803088002C333F3
:1013D300D8FC4CF5AA22E4F533F517C3E5179404BA
:1013E300E494005032E51725E02476F582E43400D6
:1013F300F583E4F0A3F0E51725E0247EF582E434D9
:1014030000F583E4F0A3F0E5179016B293FF7D0196
:10141300120E86051780C475E10412003D43AE80A9
:101423007F010215B0C0E0C083C082C0D075D00078
:10143300C006C007E5C030E61653C0BFAF2CEF703F
:101443000E752C01F52EF52BAF27AE261215CED037
:1014530007D006D0D0D082D083D0E0328C228D2327
:10146300E4F524F525C3E5259523E5249522501AB3
:10147300AF25120877FD120F41740129F9E43AFAF6
:101483000525E52570DF052480DB2290F000740933
:10149300F0A37405F0E598543F4440F598C29DE4E9
:1014A300751C80751B25F51AF519F51DFDFF120B2B
:1014B300DFD29C22E5AE54407E0060047F018002AF
:1014C3007F00EF4E60EE53AEBFAFB4EF75F010A4E4
:1014D300FFAEF0E5B5540FFDEF4DFF22E4FFEFC380
:1014E300944074809480500F74002FF582E434008C
:1014F300F583E4F00F80E77B017A0079007D407C7F
:101503000002145FE52AB52D037F0022AF2D7486F8
:101513002FF582E43400F583E0FF052DAE2DEEC3F5
:101523009410E494004003E4F52D22E52A04FEC35D
:101533009410E494004002E4FEEE652D6010AD2AA1
:1015430074862DF582E43400F583EFF08E2A227B36
:10155300037D01E4FF1211C412148E12004612120D
:10156300D71213D97F807E257D007C00020CE4EF27
:10157300C39404E494004004E4FEFF22EF25E02436
:1015830076F582E43400F583E0FEA3E0FF22EFC3A7
:101593009404E494004004E4FEFF22EF25E0247E5B
:1015A300F582E43400F583E0FEA3E0FF22E58954ED
:1015B300FC4401F589D28CEF600E758CE0758AC00E
:1015C300308DFDC28D1F80EFC28C22C3E49FFFE4E8
:1015D3009E90F021F0EF90F020F090F024E054DFA3
:1015E300F0E04402F022E5AE54107E0060047F0177
:1015F30080027F00EF64014E60EC43AE10221215AF
:1016030052121134121333120041120ACA80F59098
:10161300F024E054FDF0E054DFF022E52A652D7F4D
:101623000060027F0122EFC36001D3929322042F53
:1016330001E84800000B0007050C0D0F000F0D0B10
:101643000007050C0D0F000F0D0B0007050C0D0E09
:10165300060C0E060A0A0E0E0E0E060C0E060A0ADB
:101663000E0E0E0E060C0E060A0E0E0804060D0ACA
:101673000D08070A0B0E0B080C0E0F0A0F070702C3
:10168300010B060B050E010D050D0703010F070FD7
:10169300050C0D0E0F101112131415161718191A25
:1016A3001B1C1D1E1F0B0A0807060503020100076A
:0316B30006050425
:00000001FF
